{
  "contractName": "Scii",
  "abi": [
    {
      "inputs": [
        {
          "name": "_goi",
          "type": "address"
        },
        {
          "name": "_bankAddress",
          "type": "address"
        }
      ],
      "payable": false,
      "stateMutability": "nonpayable",
      "type": "constructor"
    },
    {
      "anonymous": false,
      "inputs": [
        {
          "indexed": false,
          "name": "from",
          "type": "address"
        },
        {
          "indexed": false,
          "name": "to",
          "type": "address"
        },
        {
          "indexed": false,
          "name": "amount",
          "type": "uint256"
        }
      ],
      "name": "transferred",
      "type": "event"
    },
    {
      "constant": false,
      "inputs": [
        {
          "name": "_name",
          "type": "string"
        },
        {
          "name": "_adr",
          "type": "address"
        },
        {
          "name": "_area",
          "type": "uint256"
        },
        {
          "name": "_crop",
          "type": "uint256"
        },
        {
          "name": "_tehsil",
          "type": "uint256"
        }
      ],
      "name": "addFarmer",
      "outputs": [],
      "payable": false,
      "stateMutability": "nonpayable",
      "type": "function"
    },
    {
      "constant": false,
      "inputs": [
        {
          "name": "_name",
          "type": "string"
        },
        {
          "name": "_currentConditions",
          "type": "string"
        },
        {
          "name": "_insuranceCompany",
          "type": "address"
        }
      ],
      "name": "addTehsil",
      "outputs": [],
      "payable": false,
      "stateMutability": "nonpayable",
      "type": "function"
    },
    {
      "constant": false,
      "inputs": [
        {
          "name": "_name",
          "type": "string"
        },
        {
          "name": "_minConditions",
          "type": "string"
        },
        {
          "name": "_premium",
          "type": "uint256"
        },
        {
          "name": "_indemnityLevel",
          "type": "uint256"
        }
      ],
      "name": "addCrop",
      "outputs": [],
      "payable": false,
      "stateMutability": "nonpayable",
      "type": "function"
    },
    {
      "constant": false,
      "inputs": [
        {
          "name": "tehsilId",
          "type": "uint256"
        },
        {
          "name": "cropId",
          "type": "uint256"
        },
        {
          "name": "scf",
          "type": "uint256"
        }
      ],
      "name": "addScaleOfFinance",
      "outputs": [],
      "payable": false,
      "stateMutability": "nonpayable",
      "type": "function"
    },
    {
      "constant": false,
      "inputs": [
        {
          "name": "tehsilId",
          "type": "uint256"
        },
        {
          "name": "cropId",
          "type": "uint256"
        },
        {
          "name": "_premium",
          "type": "uint256"
        }
      ],
      "name": "addPremiumRate",
      "outputs": [],
      "payable": false,
      "stateMutability": "nonpayable",
      "type": "function"
    },
    {
      "constant": false,
      "inputs": [
        {
          "name": "tehsilId",
          "type": "uint256"
        }
      ],
      "name": "getAllPremium",
      "outputs": [],
      "payable": false,
      "stateMutability": "nonpayable",
      "type": "function"
    },
    {
      "constant": true,
      "inputs": [
        {
          "name": "_timestamp",
          "type": "uint256"
        },
        {
          "name": "id",
          "type": "uint256"
        }
      ],
      "name": "getNumberOfMonths",
      "outputs": [
        {
          "name": "",
          "type": "uint256"
        }
      ],
      "payable": false,
      "stateMutability": "view",
      "type": "function"
    },
    {
      "constant": true,
      "inputs": [
        {
          "name": "cropId",
          "type": "uint256"
        },
        {
          "name": "suminsured",
          "type": "uint256"
        }
      ],
      "name": "calculatePremiumAmountFarmer",
      "outputs": [
        {
          "name": "",
          "type": "uint256"
        }
      ],
      "payable": false,
      "stateMutability": "view",
      "type": "function"
    },
    {
      "constant": true,
      "inputs": [
        {
          "name": "tehsilId",
          "type": "uint256"
        },
        {
          "name": "cropid",
          "type": "uint256"
        },
        {
          "name": "sumInsured",
          "type": "uint256"
        }
      ],
      "name": "calculateGovPremiumAmount",
      "outputs": [
        {
          "name": "",
          "type": "uint256"
        }
      ],
      "payable": false,
      "stateMutability": "view",
      "type": "function"
    },
    {
      "constant": false,
      "inputs": [],
      "name": "farmerClaims",
      "outputs": [
        {
          "name": "",
          "type": "uint256"
        },
        {
          "name": "",
          "type": "string"
        },
        {
          "name": "",
          "type": "uint256"
        }
      ],
      "payable": false,
      "stateMutability": "nonpayable",
      "type": "function"
    },
    {
      "constant": false,
      "inputs": [
        {
          "name": "farmerId",
          "type": "uint256"
        }
      ],
      "name": "farmerClaimById",
      "outputs": [
        {
          "name": "",
          "type": "string"
        },
        {
          "name": "",
          "type": "uint256"
        }
      ],
      "payable": false,
      "stateMutability": "nonpayable",
      "type": "function"
    },
    {
      "constant": true,
      "inputs": [],
      "name": "getNumberOfClaims",
      "outputs": [
        {
          "name": "",
          "type": "uint256"
        }
      ],
      "payable": false,
      "stateMutability": "view",
      "type": "function"
    },
    {
      "constant": true,
      "inputs": [],
      "name": "getNumberOfClaimsPaid",
      "outputs": [
        {
          "name": "",
          "type": "uint256"
        }
      ],
      "payable": false,
      "stateMutability": "view",
      "type": "function"
    },
    {
      "constant": true,
      "inputs": [
        {
          "name": "tehsilid",
          "type": "uint256"
        }
      ],
      "name": "getAllFarmersInTehsil",
      "outputs": [
        {
          "name": "",
          "type": "uint256[]"
        }
      ],
      "payable": false,
      "stateMutability": "view",
      "type": "function"
    },
    {
      "constant": false,
      "inputs": [
        {
          "name": "farmerId",
          "type": "uint256"
        },
        {
          "name": "approved",
          "type": "bool"
        }
      ],
      "name": "updateFarmerClaimStatus",
      "outputs": [],
      "payable": false,
      "stateMutability": "nonpayable",
      "type": "function"
    },
    {
      "constant": false,
      "inputs": [],
      "name": "endOfSeason",
      "outputs": [],
      "payable": false,
      "stateMutability": "nonpayable",
      "type": "function"
    },
    {
      "constant": true,
      "inputs": [
        {
          "name": "cropId",
          "type": "uint256"
        },
        {
          "name": "farmerId",
          "type": "uint256"
        }
      ],
      "name": "getPayoutAmount",
      "outputs": [
        {
          "name": "",
          "type": "uint256"
        }
      ],
      "payable": false,
      "stateMutability": "view",
      "type": "function"
    },
    {
      "constant": true,
      "inputs": [],
      "name": "getBalanceOf",
      "outputs": [
        {
          "name": "",
          "type": "uint256"
        }
      ],
      "payable": false,
      "stateMutability": "view",
      "type": "function"
    },
    {
      "constant": true,
      "inputs": [
        {
          "name": "tehsilId",
          "type": "uint256"
        },
        {
          "name": "cropId",
          "type": "uint256"
        }
      ],
      "name": "getScaleOfFinance",
      "outputs": [
        {
          "name": "",
          "type": "uint256"
        }
      ],
      "payable": false,
      "stateMutability": "view",
      "type": "function"
    },
    {
      "constant": true,
      "inputs": [
        {
          "name": "id",
          "type": "uint256"
        }
      ],
      "name": "getFarmerDetails",
      "outputs": [
        {
          "name": "",
          "type": "uint256"
        },
        {
          "name": "",
          "type": "uint256"
        },
        {
          "name": "",
          "type": "address"
        },
        {
          "name": "",
          "type": "uint256"
        },
        {
          "name": "",
          "type": "uint256"
        },
        {
          "name": "",
          "type": "uint256"
        },
        {
          "name": "",
          "type": "uint256"
        }
      ],
      "payable": false,
      "stateMutability": "view",
      "type": "function"
    },
    {
      "constant": true,
      "inputs": [
        {
          "name": "n",
          "type": "uint256"
        }
      ],
      "name": "getLedgerEntry",
      "outputs": [
        {
          "name": "",
          "type": "address"
        },
        {
          "name": "",
          "type": "address"
        },
        {
          "name": "",
          "type": "uint256"
        }
      ],
      "payable": false,
      "stateMutability": "view",
      "type": "function"
    },
    {
      "constant": true,
      "inputs": [],
      "name": "getLedgerLength",
      "outputs": [
        {
          "name": "",
          "type": "uint256"
        }
      ],
      "payable": false,
      "stateMutability": "view",
      "type": "function"
    },
    {
      "constant": false,
      "inputs": [
        {
          "name": "adr",
          "type": "address"
        },
        {
          "name": "amount",
          "type": "uint256"
        }
      ],
      "name": "addBalance",
      "outputs": [],
      "payable": false,
      "stateMutability": "nonpayable",
      "type": "function"
    },
    {
      "constant": true,
      "inputs": [],
      "name": "getTotalFarmers",
      "outputs": [
        {
          "name": "",
          "type": "uint256"
        }
      ],
      "payable": false,
      "stateMutability": "view",
      "type": "function"
    }
  ],
  "bytecode": "0x60806040526000600355600060065560006017556000601855600060195534801561002957600080fd5b50604051604080612177833981018060405281019080805190602001909291908051906020019092919050505081601a60006101000a81548173ffffffffffffffffffffffffffffffffffffffff021916908373ffffffffffffffffffffffffffffffffffffffff16021790555080601b60006101000a81548173ffffffffffffffffffffffffffffffffffffffff021916908373ffffffffffffffffffffffffffffffffffffffff1602179055506298968060166000601a60009054906101000a900473ffffffffffffffffffffffffffffffffffffffff1673ffffffffffffffffffffffffffffffffffffffff1673ffffffffffffffffffffffffffffffffffffffff1681526020019081526020016000208190555033600760006101000a81548173ffffffffffffffffffffffffffffffffffffffff021916908373ffffffffffffffffffffffffffffffffffffffff1602179055505050611fe4806101936000396000f30060806040526004361061013e576000357c0100000000000000000000000000000000000000000000000000000000900463ffffffff1680630a10f652146101435780631baab1dc1461016e57806321e5383a146101b95780632306f600146102065780633218504914610231578063327e28781461025c57806343ec5665146102b15780634e05a7981461035857806357b18f6c146103a357806363488d231461047257806375dab21d146104f45780637a6fde111461050b57806385d79637146105b857806392ecf8201461067b5780639dc751c6146106c6578063c337082314610711578063c8f420a714610752578063cbdd99801461078b578063dbb583a714610822578063dd135472146108c9578063dd52c33814610967578063ecbde5e614610992578063f2a50ff2146109bd578063f5e6d20a146109ea575b600080fd5b34801561014f57600080fd5b50610158610a2b565b6040518082815260200191505060405180910390f35b34801561017a57600080fd5b506101a36004803603810190808035906020019092919080359060200190929190505050610a35565b6040518082815260200191505060405180910390f35b3480156101c557600080fd5b50610204600480360381019080803573ffffffffffffffffffffffffffffffffffffffff16906020019092919080359060200190929190505050610a61565b005b34801561021257600080fd5b5061021b610ab2565b6040518082815260200191505060405180910390f35b34801561023d57600080fd5b50610246610abf565b6040518082815260200191505060405180910390f35b34801561026857600080fd5b5061029b600480360381019080803590602001909291908035906020019092919080359060200190929190505050610ac9565b6040518082815260200191505060405180910390f35b3480156102bd57600080fd5b506102dc60048036038101908080359060200190929190505050610b1c565b604051808473ffffffffffffffffffffffffffffffffffffffff1673ffffffffffffffffffffffffffffffffffffffff1681526020018373ffffffffffffffffffffffffffffffffffffffff1673ffffffffffffffffffffffffffffffffffffffff168152602001828152602001935050505060405180910390f35b34801561036457600080fd5b5061038d6004803603810190808035906020019092919080359060200190929190505050610bd1565b6040518082815260200191505060405180910390f35b3480156103af57600080fd5b50610470600480360381019080803590602001908201803590602001908080601f0160208091040260200160405190810160405280939291908181526020018383808284378201915050505050509192919290803590602001908201803590602001908080601f0160208091040260200160405190810160405280939291908181526020018383808284378201915050505050509192919290803573ffffffffffffffffffffffffffffffffffffffff169060200190929190505050610c00565b005b34801561047e57600080fd5b5061049d60048036038101908080359060200190929190505050610d33565b6040518080602001828103825283818151815260200191508051906020019060200280838360005b838110156104e05780820151818401526020810190506104c5565b505050509050019250505060405180910390f35b34801561050057600080fd5b50610509610da1565b005b34801561051757600080fd5b5061053660048036038101908080359060200190929190505050610e56565b6040518080602001838152602001828103825284818151815260200191508051906020019080838360005b8381101561057c578082015181840152602081019050610561565b50505050905090810190601f1680156105a95780820380516001836020036101000a031916815260200191505b50935050505060405180910390f35b3480156105c457600080fd5b50610679600480360381019080803590602001908201803590602001908080601f0160208091040260200160405190810160405280939291908181526020018383808284378201915050505050509192919290803590602001908201803590602001908080601f01602080910402602001604051908101604052809392919081815260200183838082843782019150505050505091929192908035906020019092919080359060200190929190505050610fd2565b005b34801561068757600080fd5b506106b0600480360381019080803590602001909291908035906020019092919050505061107e565b6040518082815260200191505060405180910390f35b3480156106d257600080fd5b506106fb60048036038101908080359060200190929190803590602001909291905050506110c3565b6040518082815260200191505060405180910390f35b34801561071d57600080fd5b506107506004803603810190808035906020019092919080359060200190929190803590602001909291905050506110f4565b005b34801561075e57600080fd5b506107896004803603810190808035906020019092919080351515906020019092919050505061118f565b005b34801561079757600080fd5b506107b660048036038101908080359060200190929190505050611377565b604051808881526020018781526020018673ffffffffffffffffffffffffffffffffffffffff1673ffffffffffffffffffffffffffffffffffffffff16815260200185815260200184815260200183815260200182815260200197505050505050505060405180910390f35b34801561082e57600080fd5b506108c7600480360381019080803590602001908201803590602001908080601f0160208091040260200160405190810160405280939291908181526020018383808284378201915050505050509192919290803573ffffffffffffffffffffffffffffffffffffffff16906020019092919080359060200190929190803590602001909291908035906020019092919050505061145c565b005b3480156108d557600080fd5b506108de611735565b6040518084815260200180602001838152602001828103825284818151815260200191508051906020019080838360005b8381101561092a57808201518184015260208101905061090f565b50505050905090810190601f1680156109575780820380516001836020036101000a031916815260200191505b5094505050505060405180910390f35b34801561097357600080fd5b5061097c6118fa565b6040518082815260200191505060405180910390f35b34801561099e57600080fd5b506109a7611904565b6040518082815260200191505060405180910390f35b3480156109c957600080fd5b506109e86004803603810190808035906020019092919050505061194b565b005b3480156109f657600080fd5b50610a29600480360381019080803590602001909291908035906020019092919080359060200190929190505050611b66565b005b6000601754905090565b6000600883600381101515610a4657fe5b6002020182600281101515610a5757fe5b0154905092915050565b80601660008473ffffffffffffffffffffffffffffffffffffffff1673ffffffffffffffffffffffffffffffffffffffff168152602001908152602001600020600082825401925050819055505050565b6000600480549050905090565b6000601954905090565b600060646002600085815260200190815260200160002060010154600e86600381101515610af357fe5b6002020185600281101515610b0457fe5b0154038302811515610b1257fe5b0490509392505050565b6000806000600484815481101515610b3057fe5b906000526020600020906003020160000160009054906101000a900473ffffffffffffffffffffffffffffffffffffffff16600485815481101515610b7157fe5b906000526020600020906003020160010160009054906101000a900473ffffffffffffffffffffffffffffffffffffffff16600486815481101515610bb257fe5b9060005260206000209060030201600201549250925092509193909250565b6000606460026000858152602001908152602001600020600101548302811515610bf757fe5b04905092915050565b826005600060065481526020019081526020016000206004019080519060200190610c2c929190611ec5565b50816005600060065481526020019081526020016000206003019080519060200190610c59929190611ec5565b508060056000600654815260200190815260200160002060010160006101000a81548173ffffffffffffffffffffffffffffffffffffffff021916908373ffffffffffffffffffffffffffffffffffffffff160217905550601560008273ffffffffffffffffffffffffffffffffffffffff1673ffffffffffffffffffffffffffffffffffffffff1681526020019081526020016000206006549080600181540180825580915050906001820390600052602060002001600090919290919091505550600660008154809291906001019190505550505050565b606060056000838152602001908152602001600020600001805480602002602001604051908101604052809291908181526020018280548015610d9557602002820191906000526020600020905b815481526020019060010190808311610d81575b50505050509050919050565b6000600760009054906101000a900473ffffffffffffffffffffffffffffffffffffffff1673ffffffffffffffffffffffffffffffffffffffff163373ffffffffffffffffffffffffffffffffffffffff16141515610dff57600080fd5b600090505b601754811015610e535760036001600083815260200190815260200160002060080160006101000a81548160ff02191690836003811115610e4157fe5b02179055508080600101915050610e04565b50565b60606000806003811115610e6657fe5b6001600085815260200190815260200160002060080160009054906101000a900460ff166003811115610e9557fe5b141515610ea157600080fd5b600180600085815260200190815260200160002060080160006101000a81548160ff02191690836003811115610ed357fe5b021790555060186000815480929190600101919050555060056000600160008681526020019081526020016000206006015481526020019081526020016000206003016001600085815260200190815260200160002060050154818054600181600116156101000203166002900480601f016020809104026020016040519081016040528092919081815260200182805460018160011615610100020316600290048015610fc25780601f10610f9757610100808354040283529160200191610fc2565b820191906000526020600020905b815481529060010190602001808311610fa557829003601f168201915b5050505050915091509150915091565b836002600060035481526020019081526020016000206000019080519060200190610ffe929190611ec5565b5081600260006003548152602001908152602001600020600101819055508060026000600354815260200190815260200160002060030181905550826002600060035481526020019081526020016000206002019080519060200190611065929190611ec5565b5060036000815480929190600101919050555050505050565b6000606460016000848152602001908152602001600020600701546002600086815260200190815260200160002060030154028115156110ba57fe5b04905092915050565b600062278d00600160008481526020019081526020016000206002015484038115156110eb57fe5b04905092915050565b6005600084815260200190815260200160002060010160009054906101000a900473ffffffffffffffffffffffffffffffffffffffff1673ffffffffffffffffffffffffffffffffffffffff163373ffffffffffffffffffffffffffffffffffffffff1614151561116457600080fd5b80600e8460038110151561117457fe5b600202018360028110151561118557fe5b0181905550505050565b6000600760009054906101000a900473ffffffffffffffffffffffffffffffffffffffff1673ffffffffffffffffffffffffffffffffffffffff163373ffffffffffffffffffffffffffffffffffffffff161415156111ed57600080fd5b600160038111156111fa57fe5b6001600085815260200190815260200160002060080160009054906101000a900460ff16600381111561122957fe5b14151561123557600080fd5b81156113395760026001600085815260200190815260200160002060080160006101000a81548160ff0219169083600381111561126e57fe5b021790555061129383600160008681526020019081526020016000206005015461107e565b9050611322600560006001600087815260200190815260200160002060060154815260200190815260200160002060010160009054906101000a900473ffffffffffffffffffffffffffffffffffffffff166001600086815260200190815260200160002060030160009054906101000a900473ffffffffffffffffffffffffffffffffffffffff1683611bed565b601960008154809291906001019190505550611372565b60006001600085815260200190815260200160002060080160006101000a81548160ff0219169083600381111561136c57fe5b02179055505b505050565b60008060008060008060006001600089815260200190815260200160002060010154600160008a815260200190815260200160002060020154600160008b815260200190815260200160002060030160009054906101000a900473ffffffffffffffffffffffffffffffffffffffff16600160008c815260200190815260200160002060040154600160008d815260200190815260200160002060050154600160008e815260200190815260200160002060060154600160008f8152602001908152602001600020600701549650965096509650965096509650919395979092949650565b601b60009054906101000a900473ffffffffffffffffffffffffffffffffffffffff1673ffffffffffffffffffffffffffffffffffffffff163373ffffffffffffffffffffffffffffffffffffffff161415156114b857600080fd5b6017546000803373ffffffffffffffffffffffffffffffffffffffff1673ffffffffffffffffffffffffffffffffffffffff16815260200190815260200160002081905550846001600060175481526020019081526020016000206000019080519060200190611529929190611ec5565b508360016000601754815260200190815260200160002060030160006101000a81548173ffffffffffffffffffffffffffffffffffffffff021916908373ffffffffffffffffffffffffffffffffffffffff1602179055508260016000601754815260200190815260200160002060040181905550816001600060175481526020019081526020016000206005018190555080600160006017548152602001908152602001600020600601819055504260016000601754815260200190815260200160002060020181905550600060016000601754815260200190815260200160002060080160006101000a81548160ff0219169083600381111561162a57fe5b02179055506116398282610a35565b83026001600060175481526020019081526020016000206007018190555060056000828152602001908152602001600020600001601754908060018154018082558091505090600182039060005260206000200160009091929091909150555060006001600060175481526020019081526020016000206001018190555060016000601754815260200190815260200160002060070154601660008673ffffffffffffffffffffffffffffffffffffffff1673ffffffffffffffffffffffffffffffffffffffff168152602001908152602001600020600082825401925050819055506017600081548092919060010191905055505050505050565b600060606000806000803373ffffffffffffffffffffffffffffffffffffffff1673ffffffffffffffffffffffffffffffffffffffff1681526020019081526020016000205490506000600381111561178a57fe5b6001600083815260200190815260200160002060080160009054906101000a900460ff1660038111156117b957fe5b1415156117c557600080fd5b601860008154809291906001019190505550600180600083815260200190815260200160002060080160006101000a81548160ff0219169083600381111561180957fe5b02179055508060056000600160008581526020019081526020016000206006015481526020019081526020016000206003016001600084815260200190815260200160002060050154818054600181600116156101000203166002900480601f0160208091040260200160405190810160405280929190818152602001828054600181600116156101000203166002900480156118e75780601f106118bc576101008083540402835291602001916118e7565b820191906000526020600020905b8154815290600101906020018083116118ca57829003601f168201915b5050505050915093509350935050909192565b6000601854905090565b6000601660003373ffffffffffffffffffffffffffffffffffffffff1673ffffffffffffffffffffffffffffffffffffffff16815260200190815260200160002054905090565b600080600080843373ffffffffffffffffffffffffffffffffffffffff166005600083815260200190815260200160002060010160009054906101000a900473ffffffffffffffffffffffffffffffffffffffff1673ffffffffffffffffffffffffffffffffffffffff161415156119c257600080fd5b60009450600093505b6005600087815260200190815260200160002060000180549050841015611b31576119f642856110c3565b925060006003811115611a0557fe5b6001600086815260200190815260200160002060080160009054906101000a900460ff166003811115611a3457fe5b1415611b2457611a7060016000868152602001908152602001600020600501546001600087815260200190815260200160002060070154610bd1565b60016000868152602001908152602001600020600101548403029150611ac38660016000878152602001908152602001600020600501546001600088815260200190815260200160002060070154610ac9565b85019450826001600086815260200190815260200160002060010181905550611b236001600086815260200190815260200160002060030160009054906101000a900473ffffffffffffffffffffffffffffffffffffffff163384611bed565b5b83806001019450506119cb565b611b5e601a60009054906101000a900473ffffffffffffffffffffffffffffffffffffffff163387611bed565b505050505050565b600760009054906101000a900473ffffffffffffffffffffffffffffffffffffffff1673ffffffffffffffffffffffffffffffffffffffff163373ffffffffffffffffffffffffffffffffffffffff16141515611bc257600080fd5b80600884600381101515611bd257fe5b6002020183600281101515611be357fe5b0181905550505050565b611bf5611f45565b81601660008673ffffffffffffffffffffffffffffffffffffffff1673ffffffffffffffffffffffffffffffffffffffff1681526020019081526020016000205410151515611c4357600080fd5b81601660008673ffffffffffffffffffffffffffffffffffffffff1673ffffffffffffffffffffffffffffffffffffffff1681526020019081526020016000206000828254039250508190555081601660008573ffffffffffffffffffffffffffffffffffffffff1673ffffffffffffffffffffffffffffffffffffffff1681526020019081526020016000206000828254019250508190555083816000019073ffffffffffffffffffffffffffffffffffffffff16908173ffffffffffffffffffffffffffffffffffffffff168152505082816020019073ffffffffffffffffffffffffffffffffffffffff16908173ffffffffffffffffffffffffffffffffffffffff1681525050818160400181815250506004819080600181540180825580915050906001820390600052602060002090600302016000909192909190915060008201518160000160006101000a81548173ffffffffffffffffffffffffffffffffffffffff021916908373ffffffffffffffffffffffffffffffffffffffff16021790555060208201518160010160006101000a81548173ffffffffffffffffffffffffffffffffffffffff021916908373ffffffffffffffffffffffffffffffffffffffff160217905550604082015181600201555050507f8baf29b4b5af24ec8170355f2819a9135840321dd4e65b88a080dfc3054fe99c848484604051808473ffffffffffffffffffffffffffffffffffffffff1673ffffffffffffffffffffffffffffffffffffffff1681526020018373ffffffffffffffffffffffffffffffffffffffff1673ffffffffffffffffffffffffffffffffffffffff168152602001828152602001935050505060405180910390a150505050565b828054600181600116156101000203166002900490600052602060002090601f016020900481019282601f10611f0657805160ff1916838001178555611f34565b82800160010185558215611f34579182015b82811115611f33578251825591602001919060010190611f18565b5b509050611f419190611f93565b5090565b606060405190810160405280600073ffffffffffffffffffffffffffffffffffffffff168152602001600073ffffffffffffffffffffffffffffffffffffffff168152602001600081525090565b611fb591905b80821115611fb1576000816000905550600101611f99565b5090565b905600a165627a7a723058205bbd3f567fa8b83c47d6627d0de8af133c844e500a9b032a5767878029b67d450029",
  "source": "pragma solidity ^0.4.23;\n\n\n//TODO: Rainfall waala threshold to be implemented at end of season\ncontract Scii {\n    enum _policyStatus {OPEN, CLAIMED, APPROVED, CLOSED}\n    struct farmer {\n        string name;\n        uint numberOfMonths;\n        uint policyInitiateTimeStamp;\n        address adr;\n        uint area;\n        uint cropId;\n        uint tehsil;\n        uint loanAmount;\n        _policyStatus policyStatus;\n    }\n    uint constant nTehsils = 2;\n    uint constant nCrops = 3;\n    mapping (address=> uint) FarmerIdOf;\n    mapping (uint=> farmer) Farmer;\n    event transferred(address from, address to, uint amount);\n    struct Crop{\n        string name;\n        uint premium;\n        string minConditionData;\n        uint indemnityLevel;\n    }\n    mapping(uint => Crop) crop;\n    uint crops = 0;\n    struct _ledger {\n        address from;\n        address to;\n        uint value;\n    }\n    _ledger[] ledger;\n    struct Tehsil {\n        uint[] farmers;\n        address insuranceCompany;\n        uint tehsilId;\n        string currentConditions;\n        string name;\n    }\n    mapping(uint => Tehsil) tehsil;\n    uint tehsils =0;\n    address owner;\n    uint[nTehsils][nCrops] scaleOfFinance; // 2-D array with tehsil vs crops.\n    uint[nTehsils][nCrops] insurancePremiumRate;\n    mapping(uint => uint) tehsilOfFarmer; //farmer id to tehsil id mapping\n    mapping(address => uint[]) tehsilsOf; //tehsil ids under a particular insurance company\n    mapping (address => uint) balanceOf;\n    uint FarmerCount=0;\n    uint numberOfClaimsMade = 0; //TODO: implement number\n    uint numberOfClaimsPaid = 0;\n    address goi;\n    address bankAddress;\n    constructor (address _goi, address _bankAddress) public {\n        goi = _goi;\n        bankAddress = _bankAddress;\n        balanceOf[goi] = 10000000;\n        owner = msg.sender;\n    }\n\n    modifier onlyBankAddress() {\n        require(msg.sender == bankAddress);\n        _;\n    }\n    modifier onlyOwner() {\n        require(msg.sender == owner);\n        _;\n    }\n    modifier onlyInsuranceCompany(uint tehsilId) {\n        require(tehsil[tehsilId].insuranceCompany == msg.sender);\n        _;\n    }\n    //Reg functions \n    function addFarmer(string _name,address _adr, uint _area, uint _crop, uint _tehsil) public onlyBankAddress {\n        FarmerIdOf[msg.sender] = FarmerCount;\n        Farmer[FarmerCount].name = _name;\n        Farmer[FarmerCount].adr = _adr;\n        Farmer[FarmerCount].area = _area;\n        Farmer[FarmerCount].cropId = _crop;\n        Farmer[FarmerCount].tehsil = _tehsil;\n        Farmer[FarmerCount].policyInitiateTimeStamp = block.timestamp;\n        Farmer[FarmerCount].policyStatus = _policyStatus.OPEN;\n        Farmer[FarmerCount].loanAmount = _area * getScaleOfFinance(_crop, _tehsil);\n        tehsil[_tehsil].farmers.push(FarmerCount);\n        Farmer[FarmerCount].numberOfMonths = 0;\n        balanceOf[_adr] += Farmer[FarmerCount].loanAmount;        \n        FarmerCount++;\n    }\n    function addTehsil(string _name, string _currentConditions, address _insuranceCompany) public {\n        tehsil[tehsils].name = _name;\n        tehsil[tehsils].currentConditions = _currentConditions;\n        tehsil[tehsils].insuranceCompany = _insuranceCompany;\n        tehsilsOf[_insuranceCompany].push(tehsils);\n        tehsils++;\n    }\n    function addCrop(string _name, string _minConditions, uint _premium, uint _indemnityLevel) public {\n        crop[crops].name = _name;\n        crop[crops].premium = _premium;\n        crop[crops].indemnityLevel = _indemnityLevel;\n        crop[crops].minConditionData = _minConditions;\n        crops++;\n    }\n    function addScaleOfFinance(uint tehsilId, uint cropId, uint scf) onlyOwner public {\n        scaleOfFinance[tehsilId][cropId] = scf;\n    }\n\n    function addPremiumRate(uint tehsilId, uint cropId, uint _premium)  public {\n        require(msg.sender == tehsil[tehsilId].insuranceCompany);\n        insurancePremiumRate[tehsilId][cropId] = _premium;\n    }\n\n    //Premium functions\n    function getAllPremium(uint tehsilId) onlyInsuranceCompany(tehsilId) public {\n        uint govAmount = 0;\n            for(uint j=0; j < tehsil[tehsilId].farmers.length; j++) {\n                uint n = getNumberOfMonths(block.timestamp,j);\n                if(Farmer[j].policyStatus == _policyStatus.OPEN) {\n                    uint amount = (n - Farmer[j].numberOfMonths) * calculatePremiumAmountFarmer(Farmer[j].cropId, Farmer[j].loanAmount);\n                    govAmount += calculateGovPremiumAmount(tehsilId, Farmer[j].cropId, Farmer[j].loanAmount);\n                    Farmer[j].numberOfMonths = n;\n                    transferFrom(Farmer[j].adr, msg.sender, amount);\n                }\n            }\n        transferFrom(goi, msg.sender, govAmount);\n    }\n    function getNumberOfMonths(uint _timestamp, uint id) public view returns (uint){\n        return ((_timestamp - Farmer[id].policyInitiateTimeStamp)/2592000);\n        // return (_timestamp - Farmer[id].policyInitiateTimeStamp);\n    }\n    function calculatePremiumAmountFarmer(uint cropId,uint suminsured) public view returns(uint) {\n        return (suminsured*(crop[cropId].premium))/100; //TODO: Perform this mulitplication\n    }\n    function calculateGovPremiumAmount(uint tehsilId,uint cropid,uint sumInsured) public view returns(uint) {\n        return (sumInsured*(insurancePremiumRate[tehsilId][cropid] - crop[cropid].premium))/100;\n    }\n\n    //Claim handling functions\n\n    function farmerClaims() public returns (uint, string, uint) {\n        uint farmerId = FarmerIdOf[msg.sender];\n        require(Farmer[farmerId].policyStatus == _policyStatus.OPEN);\n        numberOfClaimsMade++;\n        Farmer[farmerId].policyStatus = _policyStatus.CLAIMED;\n        return (farmerId, tehsil[Farmer[farmerId].tehsil].currentConditions, Farmer[farmerId].cropId);\n    }    \n    function farmerClaimById(uint farmerId) public  returns(string, uint) {\n        require(Farmer[farmerId].policyStatus == _policyStatus.OPEN);\n        Farmer[farmerId].policyStatus = _policyStatus.CLAIMED;\n        numberOfClaimsMade++;\n        return (tehsil[Farmer[farmerId].tehsil].currentConditions, Farmer[farmerId].cropId);\n    }    \n    function getNumberOfClaims() public view returns(uint) {\n        return numberOfClaimsMade;\n    }\n    function getNumberOfClaimsPaid() public view returns(uint) {\n            return numberOfClaimsPaid;\n        }\n    function getAllFarmersInTehsil(uint tehsilid) public view returns (uint[]) {\n        return tehsil[tehsilid].farmers;\n    }\n\n    function updateFarmerClaimStatus(uint farmerId, bool approved) public onlyOwner {\n        require(Farmer[farmerId].policyStatus == _policyStatus.CLAIMED);\n        if(approved) {\n            Farmer[farmerId].policyStatus = _policyStatus.APPROVED;\n            uint amount = getPayoutAmount(farmerId, Farmer[farmerId].cropId);\n            transferFrom(tehsil[Farmer[farmerId].tehsil].insuranceCompany, Farmer[farmerId].adr, amount); //TODO implement transfer\n            numberOfClaimsPaid++;\n        }\n        else {\n            Farmer[farmerId].policyStatus = _policyStatus.OPEN;\n        }\n    } \n\n    function endOfSeason() public onlyOwner {\n        for (uint i = 0; i < FarmerCount; i++) {\n            Farmer[i].policyStatus = _policyStatus.CLOSED;\n        }\n        //Check for every farmer\n    }\n\n    function getPayoutAmount(uint cropId, uint farmerId) public view returns(uint) {\n        return (crop[cropId].indemnityLevel * Farmer[farmerId].loanAmount)/100;\n    }\n    function transferFrom(address from, address to, uint amount) internal {\n        require(balanceOf[from] >= amount);\n        balanceOf[from] -= amount;\n        balanceOf[to] += amount;\n        _ledger memory temp;\n        temp.from = from;\n        temp.to = to;\n        temp.value = amount;\n        ledger.push(temp);\n        emit transferred(from, to, amount);\n    }\n    function getBalanceOf() public view returns(uint) {\n        return balanceOf[msg.sender];\n    }\n    function getScaleOfFinance(uint tehsilId, uint cropId) public view returns(uint) {\n        return scaleOfFinance[tehsilId][cropId];\n    }\n    function getFarmerDetails(uint id) public view returns (uint, uint, address, uint, uint, uint, uint) {\n        return(Farmer[id].numberOfMonths, Farmer[id].policyInitiateTimeStamp, Farmer[id].adr, Farmer[id].area, Farmer[id].cropId, Farmer[id].tehsil, Farmer[id].loanAmount);\n    }\n    function getLedgerEntry(uint n) public view returns(address, address, uint) {\n        return (ledger[n].from, ledger[n].to, ledger[n].value);\n    }\n    function getLedgerLength() public view returns(uint) {\n        return ledger.length;\n    }\n    //helper function \n    function addBalance(address adr, uint amount) public {\n        balanceOf[adr] += amount;\n    }\n    function getTotalFarmers() public view returns(uint) {\n        return FarmerCount;\n    }\n    //Update tehsil current conditions   \n    //Show insurance Company, ledger\n}",
  "sourcePath": "/Users/sid/Desktop/scii/contracts/scii.sol",
  "compiler": {
    "name": "solc",
    "version": "0.4.24+commit.e67f0147.Emscripten.clang"
  },
  "schemaVersion": "2.0.1",
  "updatedAt": "2018-07-25T14:40:49.714Z"
}