{
  "contractName": "Scii",
  "abi": [
    {
      "inputs": [
        {
          "name": "_goi",
          "type": "address"
        },
        {
          "name": "_bankAddress",
          "type": "address"
        }
      ],
      "payable": false,
      "stateMutability": "nonpayable",
      "type": "constructor"
    },
    {
      "anonymous": false,
      "inputs": [
        {
          "indexed": false,
          "name": "from",
          "type": "address"
        },
        {
          "indexed": false,
          "name": "to",
          "type": "address"
        },
        {
          "indexed": false,
          "name": "amount",
          "type": "uint256"
        }
      ],
      "name": "transferred",
      "type": "event"
    },
    {
      "constant": false,
      "inputs": [
        {
          "name": "_name",
          "type": "string"
        },
        {
          "name": "_area",
          "type": "uint256"
        },
        {
          "name": "_crop",
          "type": "uint256"
        },
        {
          "name": "_tehsil",
          "type": "uint256"
        }
      ],
      "name": "addFarmer",
      "outputs": [],
      "payable": false,
      "stateMutability": "nonpayable",
      "type": "function"
    },
    {
      "constant": false,
      "inputs": [
        {
          "name": "_name",
          "type": "string"
        },
        {
          "name": "_currentConditions",
          "type": "string"
        },
        {
          "name": "_insuranceCompany",
          "type": "address"
        }
      ],
      "name": "addTehsil",
      "outputs": [
        {
          "name": "success",
          "type": "bool"
        }
      ],
      "payable": false,
      "stateMutability": "nonpayable",
      "type": "function"
    },
    {
      "constant": false,
      "inputs": [
        {
          "name": "_name",
          "type": "string"
        },
        {
          "name": "_minConditions",
          "type": "string"
        },
        {
          "name": "_premium",
          "type": "uint256"
        },
        {
          "name": "_indemnityLevel",
          "type": "uint256"
        }
      ],
      "name": "addCrop",
      "outputs": [],
      "payable": false,
      "stateMutability": "nonpayable",
      "type": "function"
    },
    {
      "constant": false,
      "inputs": [
        {
          "name": "tehsilId",
          "type": "uint256"
        },
        {
          "name": "cropId",
          "type": "uint256"
        },
        {
          "name": "scf",
          "type": "uint256"
        }
      ],
      "name": "addScaleOfFinance",
      "outputs": [],
      "payable": false,
      "stateMutability": "nonpayable",
      "type": "function"
    },
    {
      "constant": false,
      "inputs": [
        {
          "name": "tehsilId",
          "type": "uint256"
        },
        {
          "name": "cropId",
          "type": "uint256"
        },
        {
          "name": "_premium",
          "type": "uint256"
        }
      ],
      "name": "addPremiumRate",
      "outputs": [],
      "payable": false,
      "stateMutability": "nonpayable",
      "type": "function"
    },
    {
      "constant": false,
      "inputs": [
        {
          "name": "_timestamp",
          "type": "uint256"
        },
        {
          "name": "tehsilId",
          "type": "uint256"
        }
      ],
      "name": "getAllPremium",
      "outputs": [],
      "payable": false,
      "stateMutability": "nonpayable",
      "type": "function"
    },
    {
      "constant": true,
      "inputs": [
        {
          "name": "cropId",
          "type": "uint256"
        },
        {
          "name": "suminsured",
          "type": "uint256"
        }
      ],
      "name": "calculatePremiumAmountFarmer",
      "outputs": [
        {
          "name": "",
          "type": "uint256"
        }
      ],
      "payable": false,
      "stateMutability": "view",
      "type": "function"
    },
    {
      "constant": true,
      "inputs": [
        {
          "name": "tehsilId",
          "type": "uint256"
        },
        {
          "name": "cropid",
          "type": "uint256"
        },
        {
          "name": "sumInsured",
          "type": "uint256"
        }
      ],
      "name": "calculateGovPremiumAmount",
      "outputs": [
        {
          "name": "",
          "type": "uint256"
        }
      ],
      "payable": false,
      "stateMutability": "view",
      "type": "function"
    },
    {
      "constant": true,
      "inputs": [],
      "name": "farmerClaims",
      "outputs": [
        {
          "name": "",
          "type": "uint256"
        },
        {
          "name": "",
          "type": "string"
        },
        {
          "name": "",
          "type": "uint256"
        }
      ],
      "payable": false,
      "stateMutability": "view",
      "type": "function"
    },
    {
      "constant": true,
      "inputs": [
        {
          "name": "farmerId",
          "type": "uint256"
        }
      ],
      "name": "farmerClaimById",
      "outputs": [
        {
          "name": "",
          "type": "string"
        },
        {
          "name": "",
          "type": "uint256"
        }
      ],
      "payable": false,
      "stateMutability": "view",
      "type": "function"
    },
    {
      "constant": true,
      "inputs": [
        {
          "name": "tehsilid",
          "type": "uint256"
        }
      ],
      "name": "getAllFarmersInTehsil",
      "outputs": [
        {
          "name": "",
          "type": "uint256[]"
        }
      ],
      "payable": false,
      "stateMutability": "view",
      "type": "function"
    },
    {
      "constant": false,
      "inputs": [
        {
          "name": "farmerId",
          "type": "uint256"
        },
        {
          "name": "approved",
          "type": "bool"
        }
      ],
      "name": "updateFarmerClaimStatus",
      "outputs": [],
      "payable": false,
      "stateMutability": "nonpayable",
      "type": "function"
    },
    {
      "constant": false,
      "inputs": [],
      "name": "endOfSeason",
      "outputs": [],
      "payable": false,
      "stateMutability": "nonpayable",
      "type": "function"
    },
    {
      "constant": true,
      "inputs": [
        {
          "name": "cropId",
          "type": "uint256"
        },
        {
          "name": "farmerId",
          "type": "uint256"
        }
      ],
      "name": "getPayoutAmount",
      "outputs": [
        {
          "name": "",
          "type": "uint256"
        }
      ],
      "payable": false,
      "stateMutability": "view",
      "type": "function"
    },
    {
      "constant": true,
      "inputs": [],
      "name": "getBalanceOf",
      "outputs": [
        {
          "name": "",
          "type": "uint256"
        }
      ],
      "payable": false,
      "stateMutability": "view",
      "type": "function"
    },
    {
      "constant": true,
      "inputs": [
        {
          "name": "tehsilId",
          "type": "uint256"
        },
        {
          "name": "cropId",
          "type": "uint256"
        }
      ],
      "name": "getScaleOfFinance",
      "outputs": [
        {
          "name": "",
          "type": "uint256"
        }
      ],
      "payable": false,
      "stateMutability": "view",
      "type": "function"
    }
  ],
  "bytecode": "0x6080604052600060035560006005556000600c556000600d556000600e5534801561002957600080fd5b50604051604080611a3a833981018060405281019080805190602001909291908051906020019092919050505081600f60006101000a81548173ffffffffffffffffffffffffffffffffffffffff021916908373ffffffffffffffffffffffffffffffffffffffff16021790555080601060006101000a81548173ffffffffffffffffffffffffffffffffffffffff021916908373ffffffffffffffffffffffffffffffffffffffff16021790555033600660006101000a81548173ffffffffffffffffffffffffffffffffffffffff021916908373ffffffffffffffffffffffffffffffffffffffff16021790555050506119108061012a6000396000f3006080604052600436106100e6576000357c0100000000000000000000000000000000000000000000000000000000900463ffffffff1680631baab1dc146100eb578063327e2878146101365780634e05a7981461018b57806357b18f6c146101d657806363488d23146102bd57806375dab21d1461033f5780637a6fde1114610356578063803d67eb1461040357806385d796371461048a57806392ecf8201461054d578063aaeb214f14610598578063c3370823146105cf578063c8f420a714610610578063dd13547214610649578063ecbde5e6146106e7578063f5e6d20a14610712575b600080fd5b3480156100f757600080fd5b506101206004803603810190808035906020019092919080359060200190929190505050610753565b6040518082815260200191505060405180910390f35b34801561014257600080fd5b5061017560048036038101908080359060200190929190803590602001909291908035906020019092919050505061078e565b6040518082815260200191505060405180910390f35b34801561019757600080fd5b506101c060048036038101908080359060200190929190803590602001909291905050506107e4565b6040518082815260200191505060405180910390f35b3480156101e257600080fd5b506102a3600480360381019080803590602001908201803590602001908080601f0160208091040260200160405190810160405280939291908181526020018383808284378201915050505050509192919290803590602001908201803590602001908080601f0160208091040260200160405190810160405280939291908181526020018383808284378201915050505050509192919290803573ffffffffffffffffffffffffffffffffffffffff169060200190929190505050610807565b604051808215151515815260200191505060405180910390f35b3480156102c957600080fd5b506102e86004803603810190808035906020019092919050505061093e565b6040518080602001828103825283818151815260200191508051906020019060200280838360005b8381101561032b578082015181840152602081019050610310565b505050509050019250505060405180910390f35b34801561034b57600080fd5b506103546109ac565b005b34801561036257600080fd5b5061038160048036038101908080359060200190929190505050610a67565b6040518080602001838152602001828103825284818151815260200191508051906020019080838360005b838110156103c75780820151818401526020810190506103ac565b50505050905090810190601f1680156103f45780820380516001836020036101000a031916815260200191505b50935050505060405180910390f35b34801561040f57600080fd5b50610488600480360381019080803590602001908201803590602001908080601f0160208091040260200160405190810160405280939291908181526020018383808284378201915050505050509192919290803590602001909291908035906020019092919080359060200190929190505050610be4565b005b34801561049657600080fd5b5061054b600480360381019080803590602001908201803590602001908080601f0160208091040260200160405190810160405280939291908181526020018383808284378201915050505050509192919290803590602001908201803590602001908080601f01602080910402602001604051908101604052809392919081815260200183838082843782019150505050505091929192908035906020019092919080359060200190929190505050610e81565b005b34801561055957600080fd5b506105826004803603810190808035906020019092919080359060200190929190505050610f2d565b6040518082815260200191505060405180910390f35b3480156105a457600080fd5b506105cd6004803603810190808035906020019092919080359060200190929190505050610f50565b005b3480156105db57600080fd5b5061060e600480360381019080803590602001909291908035906020019092919080359060200190929190505050611161565b005b34801561061c57600080fd5b506106476004803603810190808035906020019092919080351515906020019092919050505061120b565b005b34801561065557600080fd5b5061065e6113e1565b6040518084815260200180602001838152602001828103825284818151815260200191508051906020019080838360005b838110156106aa57808201518184015260208101905061068f565b50505050905090810190601f1680156106d75780820380516001836020036101000a031916815260200191505b5094505050505060405180910390f35b3480156106f357600080fd5b506106fc6115a6565b6040518082815260200191505060405180910390f35b34801561071e57600080fd5b506107516004803603810190808035906020019092919080359060200190929190803590602001909291905050506115ed565b005b600060078381548110151561076457fe5b906000526020600020018281548110151561077b57fe5b9060005260206000200154905092915050565b600060026000848152602001908152602001600020600101546008858154811015156107b657fe5b90600052602060002001848154811015156107cd57fe5b906000526020600020015403820290509392505050565b600060026000848152602001908152602001600020600101548202905092915050565b600083600460006005548152602001908152602001600020600401908051906020019061083592919061183f565b5082600460006005548152602001908152602001600020600301908051906020019061086292919061183f565b508160046000600554815260200190815260200160002060010160006101000a81548173ffffffffffffffffffffffffffffffffffffffff021916908373ffffffffffffffffffffffffffffffffffffffff160217905550600a60008373ffffffffffffffffffffffffffffffffffffffff1673ffffffffffffffffffffffffffffffffffffffff16815260200190815260200160002060055490806001815401808255809150509060018203906000526020600020016000909192909190915055506005600081548092919060010191905055509392505050565b6060600460008381526020019081526020016000206000018054806020026020016040519081016040528092919081815260200182805480156109a057602002820191906000526020600020905b81548152602001906001019080831161098c575b50505050509050919050565b6000600660009054906101000a900473ffffffffffffffffffffffffffffffffffffffff1673ffffffffffffffffffffffffffffffffffffffff163373ffffffffffffffffffffffffffffffffffffffff16141515610a0a57600080fd5b600090505b600c548160ff161015610a64576003600160008360ff16815260200190815260200160002060080160006101000a81548160ff02191690836003811115610a5257fe5b02179055508080600101915050610a0f565b50565b60606000600180600085815260200190815260200160002060080160006101000a81548160ff02191690836003811115610a9d57fe5b021790555060006003811115610aaf57fe5b6001600085815260200190815260200160002060080160009054906101000a900460ff166003811115610ade57fe5b141515610aea57600080fd5b600d6000815480929190600101919050555060046000600160008681526020019081526020016000206006015481526020019081526020016000206003016001600085815260200190815260200160002060050154818054600181600116156101000203166002900480601f016020809104026020016040519081016040528092919081815260200182805460018160011615610100020316600290048015610bd45780601f10610ba957610100808354040283529160200191610bd4565b820191906000526020600020905b815481529060010190602001808311610bb757829003601f168201915b5050505050915091509150915091565b601060009054906101000a900473ffffffffffffffffffffffffffffffffffffffff1673ffffffffffffffffffffffffffffffffffffffff163373ffffffffffffffffffffffffffffffffffffffff16141515610c4057600080fd5b600c546000803373ffffffffffffffffffffffffffffffffffffffff1673ffffffffffffffffffffffffffffffffffffffff168152602001908152602001600020819055508360016000600c5481526020019081526020016000206000019080519060200190610cb192919061183f565b503360016000600c54815260200190815260200160002060030160006101000a81548173ffffffffffffffffffffffffffffffffffffffff021916908373ffffffffffffffffffffffffffffffffffffffff1602179055508260016000600c548152602001908152602001600020600401819055508160016000600c548152602001908152602001600020600501819055508060016000600c54815260200190815260200160002060060181905550600060016000600c54815260200190815260200160002060080160006101000a81548160ff02191690836003811115610d9557fe5b0217905550610da48282610753565b830260016000600c5481526020019081526020016000206007018190555060046000828152602001908152602001600020600001600c54908060018154018082558091505090600182039060005260206000200160009091929091909150555060016000600c54815260200190815260200160002060070154600b60003373ffffffffffffffffffffffffffffffffffffffff1673ffffffffffffffffffffffffffffffffffffffff16815260200190815260200160002060008282540192505081905550600c6000815480929190600101919050555050505050565b836002600060035481526020019081526020016000206000019080519060200190610ead92919061183f565b5081600260006003548152602001908152602001600020600101819055508060026000600354815260200190815260200160002060030181905550826002600060035481526020019081526020016000206002019080519060200190610f1492919061183f565b5060036000815480929190600101919050555050505050565b600081600260008581526020019081526020016000206003015402905092915050565b6000806000806000600a60003373ffffffffffffffffffffffffffffffffffffffff1673ffffffffffffffffffffffffffffffffffffffff1681526020019081526020016000206000815481101515610fa557fe5b906000526020600020015414151515610fbd57600080fd5b60009350600092505b600460008681526020019081526020016000206000018054905083101561112c57610ff18684611683565b91506000600381111561100057fe5b6001600085815260200190815260200160002060080160009054906101000a900460ff16600381111561102f57fe5b141561111f5761106b600160008581526020019081526020016000206005015460016000868152602001908152602001600020600701546107e4565b600160008581526020019081526020016000206001015483030290506110be856001600086815260200190815260200160002060050154600160008781526020019081526020016000206007015461078e565b8401935081600160008581526020019081526020016000206001018190555061111e6001600085815260200190815260200160002060030160009054906101000a900473ffffffffffffffffffffffffffffffffffffffff1633836116b3565b5b8280600101935050610fc6565b611159600f60009054906101000a900473ffffffffffffffffffffffffffffffffffffffff1633866116b3565b505050505050565b6004600084815260200190815260200160002060010160009054906101000a900473ffffffffffffffffffffffffffffffffffffffff1673ffffffffffffffffffffffffffffffffffffffff163373ffffffffffffffffffffffffffffffffffffffff161415156111d157600080fd5b806008848154811015156111e157fe5b90600052602060002001838154811015156111f857fe5b9060005260206000200181905550505050565b6000600660009054906101000a900473ffffffffffffffffffffffffffffffffffffffff1673ffffffffffffffffffffffffffffffffffffffff163373ffffffffffffffffffffffffffffffffffffffff1614151561126957600080fd5b6001600381111561127657fe5b6001600085815260200190815260200160002060080160009054906101000a900460ff1660038111156112a557fe5b1415156112b157600080fd5b81156113a35760026001600085815260200190815260200160002060080160006101000a81548160ff021916908360038111156112ea57fe5b021790555061130f836001600086815260200190815260200160002060050154610f2d565b905061139e600460006001600087815260200190815260200160002060060154815260200190815260200160002060010160009054906101000a900473ffffffffffffffffffffffffffffffffffffffff166001600086815260200190815260200160002060030160009054906101000a900473ffffffffffffffffffffffffffffffffffffffff16836116b3565b6113dc565b60006001600085815260200190815260200160002060080160006101000a81548160ff021916908360038111156113d657fe5b02179055505b505050565b600060606000806000803373ffffffffffffffffffffffffffffffffffffffff1673ffffffffffffffffffffffffffffffffffffffff1681526020019081526020016000205490506000600381111561143657fe5b6001600083815260200190815260200160002060080160009054906101000a900460ff16600381111561146557fe5b14151561147157600080fd5b600d60008154809291906001019190505550600180600083815260200190815260200160002060080160006101000a81548160ff021916908360038111156114b557fe5b02179055508060046000600160008581526020019081526020016000206006015481526020019081526020016000206003016001600084815260200190815260200160002060050154818054600181600116156101000203166002900480601f0160208091040260200160405190810160405280929190818152602001828054600181600116156101000203166002900480156115935780601f1061156857610100808354040283529160200191611593565b820191906000526020600020905b81548152906001019060200180831161157657829003601f168201915b5050505050915093509350935050909192565b6000600b60003373ffffffffffffffffffffffffffffffffffffffff1673ffffffffffffffffffffffffffffffffffffffff16815260200190815260200160002054905090565b600660009054906101000a900473ffffffffffffffffffffffffffffffffffffffff1673ffffffffffffffffffffffffffffffffffffffff163373ffffffffffffffffffffffffffffffffffffffff1614151561164957600080fd5b8060078481548110151561165957fe5b906000526020600020018381548110151561167057fe5b9060005260206000200181905550505050565b60006104cf600160008481526020019081526020016000206002015484038115156116aa57fe5b04905092915050565b80600b60008573ffffffffffffffffffffffffffffffffffffffff1673ffffffffffffffffffffffffffffffffffffffff168152602001908152602001600020541015151561170157600080fd5b80600b60008573ffffffffffffffffffffffffffffffffffffffff1673ffffffffffffffffffffffffffffffffffffffff1681526020019081526020016000206000828254039250508190555080600b60008473ffffffffffffffffffffffffffffffffffffffff1673ffffffffffffffffffffffffffffffffffffffff168152602001908152602001600020600082825401925050819055507f8baf29b4b5af24ec8170355f2819a9135840321dd4e65b88a080dfc3054fe99c838383604051808473ffffffffffffffffffffffffffffffffffffffff1673ffffffffffffffffffffffffffffffffffffffff1681526020018373ffffffffffffffffffffffffffffffffffffffff1673ffffffffffffffffffffffffffffffffffffffff168152602001828152602001935050505060405180910390a1505050565b828054600181600116156101000203166002900490600052602060002090601f016020900481019282601f1061188057805160ff19168380011785556118ae565b828001600101855582156118ae579182015b828111156118ad578251825591602001919060010190611892565b5b5090506118bb91906118bf565b5090565b6118e191905b808211156118dd5760008160009055506001016118c5565b5090565b905600a165627a7a723058204fe34901bb69786d30518a65e86f9ce71fa8073ac13222bca1bca8cb8d282df70029",
  "source": "pragma solidity ^0.4.23;\n\n\n//TODO: Rainfall waala threshold to be implemented at end of season\ncontract Scii {\n    enum _policyStatus {OPEN, CLAIMED, APPROVED, CLOSED}\n    struct farmer {\n        string name;\n        uint numberOfMonths;\n        uint policyInitiateTimeStamp;\n        address adr;\n        uint area;\n        uint cropId;\n        uint tehsil;\n        uint loanAmount;\n        _policyStatus policyStatus;\n    }\n    mapping (address=> uint) FarmerIdOf;\n    mapping (uint=> farmer) Farmer;\n    event transferred(address from, address to, uint amount);\n    struct Crop{\n        string name;\n        uint premium;\n        string minConditionData;\n        uint indemnityLevel;\n    }\n    mapping(uint => Crop) crop;\n    uint crops = 0;\n    struct Tehsil {\n        uint[] farmers;\n        address insuranceCompany;\n        uint tehsilId;\n        string currentConditions;\n        string name;\n    }\n    mapping(uint => Tehsil) tehsil;\n    uint tehsils =0;\n    address owner;\n    uint[][] scaleOfFinance; // 2-D array with tehsil vs crops.\n    uint[][] insurancePremiumRate;\n    mapping(uint => uint) tehsilOfFarmer; //farmer id to tehsil id mapping\n    mapping(address => uint[]) tehsilsOf; //tehsil ids under a particular insurance company\n    mapping (address => uint) balanceOf;\n    uint FarmerCount=0;\n    uint numberOfClaimsMade = 0; //TODO: implement number\n    uint numberOfClaimsPaid = 0;\n    address goi;\n    address bankAddress;\n\n    constructor (address _goi, address _bankAddress) public {\n        goi = _goi;\n        bankAddress = _bankAddress;\n        owner = msg.sender;\n    }\n\n    modifier onlyBankAddress() {\n        require(msg.sender == bankAddress);\n        _;\n    }\n    modifier onlyOwner() {\n        require(msg.sender == owner);\n        _;\n    }\n    modifier onlyInsuranceCompany() {\n        require(tehsilsOf[msg.sender][0] != 0);\n        _;\n    }\n    //Reg functions \n    function addFarmer(string _name, uint _area, uint _crop, uint _tehsil) public onlyBankAddress {\n        FarmerIdOf[msg.sender] = FarmerCount;\n        Farmer[FarmerCount].name = _name;\n        Farmer[FarmerCount].adr = msg.sender;\n        Farmer[FarmerCount].area = _area;\n        Farmer[FarmerCount].cropId = _crop;\n        Farmer[FarmerCount].tehsil = _tehsil;\n        Farmer[FarmerCount].policyStatus = _policyStatus.OPEN;\n        Farmer[FarmerCount].loanAmount = _area*getScaleOfFinance(_crop, _tehsil);\n        tehsil[_tehsil].farmers.push(FarmerCount);\n        balanceOf[msg.sender] += Farmer[FarmerCount].loanAmount;\n        FarmerCount++;\n    }\n    function addTehsil(string _name, string _currentConditions, address _insuranceCompany) public returns(bool success) {\n        tehsil[tehsils].name = _name;\n        tehsil[tehsils].currentConditions = _currentConditions;\n        tehsil[tehsils].insuranceCompany = _insuranceCompany;\n        tehsilsOf[_insuranceCompany].push(tehsils);\n        tehsils++;\n    }\n    function addCrop(string _name, string _minConditions, uint _premium, uint _indemnityLevel) public {\n        crop[crops].name = _name;\n        crop[crops].premium = _premium;\n        crop[crops].indemnityLevel = _indemnityLevel;\n        crop[crops].minConditionData = _minConditions;\n        crops++;\n    }\n\n    function addScaleOfFinance(uint tehsilId, uint cropId, uint scf) onlyOwner public {\n        scaleOfFinance[tehsilId][cropId] = scf;\n    }\n\n    function addPremiumRate(uint tehsilId, uint cropId, uint _premium)  public {\n        require(msg.sender == tehsil[tehsilId].insuranceCompany);\n        insurancePremiumRate[tehsilId][cropId] = _premium;\n    }\n\n    //Premium functions\n    function getAllPremium(uint _timestamp, uint tehsilId) onlyInsuranceCompany public {\n        uint govAmount = 0;\n            for(uint j=0; j < tehsil[tehsilId].farmers.length; j++) {\n                uint n = getNumberOfMonths(_timestamp, j);\n                if(Farmer[j].policyStatus == _policyStatus.OPEN) {\n                    uint amount = (n - Farmer[j].numberOfMonths) * calculatePremiumAmountFarmer(Farmer[j].cropId, Farmer[j].loanAmount);\n                    govAmount += calculateGovPremiumAmount(tehsilId, Farmer[j].cropId, Farmer[j].loanAmount);\n                    Farmer[j].numberOfMonths = n;\n                    transferFrom(Farmer[j].adr, msg.sender, amount);\n                }\n            }\n        transferFrom(goi, msg.sender, govAmount);\n    }\n    \n    function getNumberOfMonths(uint _timestamp, uint id) internal view returns (uint){\n        return ((_timestamp - Farmer[id].policyInitiateTimeStamp)/1231);\n    }\n    function calculatePremiumAmountFarmer(uint cropId,uint suminsured) public view returns(uint) {\n        return suminsured*(crop[cropId].premium); //TODO: Perform this mulitplication\n    }\n    function calculateGovPremiumAmount(uint tehsilId,uint cropid,uint sumInsured) public view returns(uint) {\n        return sumInsured*(insurancePremiumRate[tehsilId][cropid] - crop[cropid].premium);\n    }\n\n    //Claim handling functions\n\n    function farmerClaims() public view returns (uint, string, uint) {\n        uint farmerId = FarmerIdOf[msg.sender];\n        require(Farmer[farmerId].policyStatus == _policyStatus.OPEN);\n        numberOfClaimsMade++;\n        Farmer[farmerId].policyStatus = _policyStatus.CLAIMED;\n        return (farmerId, tehsil[Farmer[farmerId].tehsil].currentConditions, Farmer[farmerId].cropId);\n    }    \n    function farmerClaimById(uint farmerId) public view returns(string, uint) {\n        Farmer[farmerId].policyStatus = _policyStatus.CLAIMED;\n        require(Farmer[farmerId].policyStatus == _policyStatus.OPEN);\n        numberOfClaimsMade++;\n        return (tehsil[Farmer[farmerId].tehsil].currentConditions, Farmer[farmerId].cropId);\n    }    \n\n    \n    function getAllFarmersInTehsil(uint tehsilid) public view returns (uint[]) {\n        return tehsil[tehsilid].farmers;\n    }\n\n    function updateFarmerClaimStatus(uint farmerId, bool approved) public onlyOwner {\n        require(Farmer[farmerId].policyStatus == _policyStatus.CLAIMED);\n        if(approved) {\n            Farmer[farmerId].policyStatus = _policyStatus.APPROVED;\n            uint amount = getPayoutAmount(farmerId, Farmer[farmerId].cropId);\n            transferFrom(tehsil[Farmer[farmerId].tehsil].insuranceCompany, Farmer[farmerId].adr, amount); //TODO implement transfer\n        }\n        else {\n            Farmer[farmerId].policyStatus = _policyStatus.OPEN;\n        }\n    } \n\n    function endOfSeason() public onlyOwner {\n        for (var i = 0; i < FarmerCount; i++) {\n            Farmer[i].policyStatus = _policyStatus.CLOSED;\n        }\n        //Check for every farmer\n    }\n\n    function getPayoutAmount(uint cropId, uint farmerId) public view returns(uint) {\n        return crop[cropId].indemnityLevel * farmerId;\n    }\n    function transferFrom(address from, address to, uint amount) internal {\n        require(balanceOf[from] >= amount);\n        balanceOf[from] -= amount;\n        balanceOf[to] += amount;\n        emit transferred(from, to, amount);\n    }\n    function getBalanceOf() public view returns(uint) {\n        return balanceOf[msg.sender];\n    }\n    function getScaleOfFinance(uint tehsilId, uint cropId) public view returns(uint) {\n        return scaleOfFinance[tehsilId][cropId];\n    }\n    //Update tehsil current conditions   \n    //Show insurance Company, ledger\n}",
  "sourcePath": "/Users/sid/Desktop/scii/contracts/scii.sol",
  "compiler": {
    "name": "solc",
    "version": "0.4.24+commit.e67f0147.Emscripten.clang"
  },
  "schemaVersion": "2.0.1",
  "updatedAt": "2018-07-25T09:00:05.401Z"
}